:020000040800F2
:1000000000180020DD110008B5030008B703000840
:1000100000000000000000000000000000000000E0
:10002000000000000000000000000000B90300080C
:100030000000000000000000BB030008BD03000832
:100040005D1200085D1200085D1200085D120008D4
:100050005D1200085D1200085D1200085D120008C4
:100060005D1200085D1200085D1200085D120008B4
:100070005D1200085D1200085D1200085D120008A4
:100080005D12000800000000000000005D12000882
:10009000000000005D1200085D1200085D120008FB
:1000A000000000005D1200085D1200085D120008EB
:1000B0005D120008000000005D1200085D120008DB
:1000C00010B5064C2378002B07D1054B002B02D02E
:1000D000044800E000BF0123237010BD0C00002085
:1000E00000000000B8120008044B10B5002B03D02C
:1000F0000349044800E000BF10BDC04600000000F6
:1001000010000020B8120008002243088B4274D36C
:1001100003098B425FD3030A8B4244D3030B8B4208
:1001200028D3030C8B420DD3FF22090212BA030C11
:100130008B4202D31212090265D0030B8B4219D3F2
:1001400000E0090AC30B8B4201D3CB03C01A524112
:10015000830B8B4201D38B03C01A5241430B8B425A
:1001600001D34B03C01A5241030B8B4201D30B0343
:10017000C01A5241C30A8B4201D3CB02C01A52416A
:10018000830A8B4201D38B02C01A5241430A8B422D
:1001900001D34B02C01A5241030A8B4201D30B0216
:1001A000C01A5241CDD2C3098B4201D3CB01C01A30
:1001B000524183098B4201D38B01C01A524143093A
:1001C0008B4201D34B01C01A524103098B4201D328
:1001D0000B01C01A5241C3088B4201D3CB00C01A95
:1001E000524183088B4201D38B00C01A524143080D
:1001F0008B4201D34B00C01A5241411A00D2014632
:10020000524110467047FFE701B5002000F006F8A4
:1002100002BDC0460029F7D076E770477047C04658
:1002200010B592B03022002106A801F03DF810224E
:10023000002101A801F038F802230593013B08933F
:100240000F330993002405A800F0C8FA072301938F
:10025000029403940494002101A800F0ABFD12B0B5
:1002600010BD10B500F086FEFFF7DAFF00F004F8CD
:1002700000F04CF8FEE7704730B589B00822002145
:1002800006A801F011F81D4B59698020C0030143F5
:1002900059615A6902400092009A5969802080028F
:1002A000014359615A6902400192019A5A698021B9
:1002B000C9020A435A615B690B400293029B022305
:1002C0000393032504950024059403A90C4800F02A
:1002D00073FE0C4B039304950594902003A9C0056D
:1002E00000F06AFEFC23FF3303930495059403A9F1
:1002F000054800F061FE09B030BDC0460010024064
:1003000000140048FB1F00000004004810B50C4812
:100310000C4B036096231B02436000238360C36081
:1003200003610C2242618361C3610362436200F096
:100330001FFA002800D110BDFFF79DFFFBE7C04664
:10034000280000200044004010B588B004001422AA
:10035000002103A800F0A8FF2268134B9A4201D0A5
:1003600008B010BD114BD969802292021143D961A6
:10037000D9691140019101995969114359615B692A
:100380001A400292029B0A4B039302230493002318
:10039000059303330693023B0793902003A9C005FE
:1003A00000F00AFEDCE7C0460044004000100240B6
:1003B000048000007047FEE77047704710B500F0FA
:1003C000E9FD10BD82B00A4B996901221143996180
:1003D00099690A400092009ADA69802149050A4326
:1003E000DA61DB690B400193019B02B07047C046A4
:1003F0000010024010B5040083680269134342698B
:100400001343C269134301680A6851480240134309
:100410000B60226853684F490B40E1680B435360FF
:10042000226AA3691A4321688B684B48034013432F
:100430008B602368494A934223D0494A934231D082
:100440001023E06980221202904235D0042B00D1A3
:1004500076E064D8002B00D16BE0022B5DD14148DF
:1004600063685B0818186168FFF74EFE0004000C13
:100470000200103A3C4B9A4267D82368D8600020AB
:1004800053E03A4B1A6B03231340022B0CD005D8D0
:10049000002B0BD0012B0BD10333D2E7032B09D157
:1004A000013BCEE70023CCE70823CAE70023C8E7D7
:1004B0001023C6E71023C4E7042B2BD020D8002B31
:1004C00022D0022B1AD12748400063685B08C0186D
:1004D0006168FFF719FE83B20004000C01001039B7
:1004E000214A91422FD80F2293431A004008072334
:1004F000184010432368D860002016E0012014E063
:10050000082BE1D0012010E000F0FCFC0028DBD13A
:1005100000200AE000F004FCF8E7012005E0082BC9
:1005200002D1802000029BE7012000236366A366BE
:1005300010BD00F0E7FC002800D091E70020F4E7B0
:1005400000F0EEFBF7E70120EFE70120EDE7C04602
:10055000F369FFEFFFCFFFFFFFF4FFFF003801401B
:100560000044004000127A00EFFF0000001002403B
:10057000436ADB0706D5026853682C490B40816A41
:100580000B435360436A9B0706D5026853682849AA
:100590000B40C16A0B435360436A5B0706D5026890
:1005A000536824490B40016B0B435360436A1B079C
:1005B00006D50268536820490B40416B0B435360DA
:1005C000436ADB0606D5026893681C490B40816BC1
:1005D0000B439360436A9B0606D5026893681849EB
:1005E0000B40C16B0B439360436A5B060BD50268FB
:1005F000536814490B40016C0B43536080235B0329
:10060000026C9A420AD0436A1B0606D502685368F8
:100610000D490B40816C0B4353607047026853686F
:100620000A490B40416C0B435360ECE7FFFFFDFFB1
:10063000FFFFFEFFFFFFFBFFFF7FFFFFFFEFFFFF5F
:10064000FFDFFFFFFFFFEFFFFFFFF7FFFFFF9FFF52
:10065000F8B5CE46474680B506000D00170099460E
:10066000089B98463368DC692C40641B63425C41FC
:10067000BC423DD143460133F4D000F097FC4B46D9
:10068000C01A404521D84346002B1ED033681A6853
:100690005207E7D5DA691205E4D5802212011A6201
:1006A0003268136815490B40136032689368A331B0
:1006B000FF318B4393602023B367F3678022B350ED
:1006C00054330022F254032013E0326813680B49BC
:1006D0000B40136032689368A331FF318B43936002
:1006E0002023B367F36754330022F254032000E061
:1006F0000020C0BCB946B046F8BDC0465FFEFFFF53
:1007000030B583B0040080230022C25000F04EFCBC
:10071000050023681B681B070DD423681B685B0753
:1007200016D42023A367E367002323667422A3540F
:10073000002003B030BD80210C4B00930300002249
:1007400089032000FFF784FF0028E6D00320F0E7AC
:100750008021064B00932B000022C9032000FFF7E5
:1007600077FF0028DDD00320E3E7C046FFFFFF014D
:1007700010B5041E2ED0836F002B21D02423A36735
:100780002268136801218B4313602000FFF732FEBB
:10079000012814D0636A002B18D1226853680E49CF
:1007A0000B405360226893682A218B439360226830
:1007B000136829390B4313602000FFF7A1FF10BD18
:1007C00074330022C254FFF7BFFDD7E72000FFF7C4
:1007D000CFFEE2E70120F2E7FFB7FFFF70B582B07E
:1007E000041E00D17FE20368DB072BD5B34B5A68A8
:1007F0000C231340042B1DD0B04B5A680C2313401C
:10080000082B0ED06368012B41D0002B56D1AB4B87
:100810001A68AB490A401A601A68AA490A401A6065
:100820003BE0A64B5B68C02252021340802252027A
:100830009342E7D1A14B1B689B0303D56368002B50
:1008400000D153E223689B0777D59C4B5B680C2251
:100850001A4262D0994B5A680C231340082B53D08C
:10086000E368002B00D18AE0944A136801210B430E
:10087000136000F09BFB0500904B1B689B0775D431
:1008800000F094FB401B0228F6D903202CE28B4A8F
:10089000116880235B020B4313606368002B25D033
:1008A00000F084FB0500854B1B689B03CAD400F055
:1008B0007DFB401B6428F6D9032015E2052B09D0E7
:1008C0007E4B1A687E490A401A601A687D490A40C0
:1008D0001A60E2E7794B19688022D2020A431A6053
:1008E0001968802252020A431A60D6E700F05EFBC4
:1008F0000500724B1B689B03A4D500F057FB401BFF
:100900006428F6D90320EFE16C4B5B68C0225202E9
:100910001340802212029342A2D1684B1B689B07AE
:1009200003D5E368012B00D0E2E164490B68F822AB
:1009300093432269D20013430B6023681B0744D5FD
:10094000E369002B2ED05D4A536A01210B435362A9
:1009500000F02CFB0500594B5B6A9B0735D400F077
:1009600025FB401B0228F6D90320BDE153490B6843
:10097000F82293432269D20013430B60DDE74F4A0C
:10098000136801218B43136000F010FB05004B4BF3
:100990001B689B07D1D500F009FB401B0228F6D944
:1009A0000320A1E1454A536A01218B43536200F0C1
:1009B000FDFA0500414B5B6A9B0706D500F0F6FA8D
:1009C000401B0228F6D903208EE123685B0700D480
:1009D00080E03A4BDB69DB001DD4384AD1698020C6
:1009E00040050143D161D36903400193019B012577
:1009F000354B1B68DB0510D5A368012B21D0002BDC
:100A000036D12E4B1A6A01218A431A621A6A0331BF
:100A10008A431A621AE00025EAE72B4A116880230C
:100A20005B000B43136000F0C1FA0600264B1B6805
:100A3000DB05E1D400F0BAFA801B6428F6D9032064
:100A400052E11E4A136A01210B431362A368002B73
:100A500024D000F0ABFA0600184B1B6A9B0737D472
:100A600000F0A4FA801B194B9842F5D903203BE112
:100A7000052B09D0114B1A6A01218A431A621A6A9E
:100A800003318A431A62E1E70C4B1A6A04210A43D4
:100A90001A621A6A03390A431A62D7E700F086FA23
:100AA0000600064B1B6A9B0712D500F07FFA801BDD
:100AB000064B9842F5D9032016E1C04600100240CB
:100AC000FFFFFEFFFFFFFBFF0070004088130000E8
:100AD000012D39D02368DB0610D56369012B39D08D
:100AE000053357D1894A536B04218B435363536BAE
:100AF000F4318B43A169C9000B43536323689B0600
:100B00006ED5824B5A680C2313400C2B60D07F4B60
:100B10005A680C231340082B53D0236A002B7ED035
:100B20007A4A516B80235B020B43536300F03EFA19
:100B30000500764B5B6BDB0352D400F037FA401BA9
:100B40000228F6D90320CFE0704AD36970490B40E0
:100B5000D361BFE76D4B5A6B04210A435A635A6B4A
:100B600003390A435A6300F021FA0500674B5B6BB7
:100B70009B0706D400F01AFA401B0228F6D903207E
:100B8000B2E062494B6BF8229343A269D20013434F
:100B90004B63B3E75D4B5A6B04210A435A635A6BAC
:100BA00003398A435A6300F001FA0500574B5B6B27
:100BB0009B07A3D500F0FAF9401B0228F6D90320C1
:100BC00092E0524B5B68C022520213409342A4D180
:100BD0004E4B5B6BDB0303D5236A012B00D089E00E
:100BE000636A002B00D187E0484A51680C220A4012
:100BF000082A60D0022B25D0444A136845490B408F
:100C0000136000F0D3F90400404B1B689B0150D5E2
:100C100000F0CCF9001B0228F6D9032064E03B4A1F
:100C2000536B3D490B40536300F0C0F90500374B4F
:100C30005B6BDB03D4D500F0B9F9401B0228F6D971
:100C4000032051E0314A136832490B40136000F031
:100C5000ADF905002D4B1B689B0106D500F0A6F9E8
:100C6000401B0228F6D903203EE0284BDA6A0F2108
:100C70008A43216B0A43DA625A6828490A40E16ACA
:100C8000A06A01430A435A601968802252040A4349
:100C90001A6000F08BF904001C4B1B689B0106D402
:100CA00000F084F9001B0228F6D903201CE0002084
:100CB0001AE0002018E0012B20D0144B5A68D96AA2
:100CC000C0235B021340A06A834219D10F230B405B
:100CD000216B8B4216D1F0239B031A40E36A9A42A0
:100CE00012D1002000E0012002B070BD0120FBE71E
:100CF0000120F9E70120F7E70020F5E70120F3E7FD
:100D00000120F1E70120EFE70120EDE700100240AC
:100D1000FFFFFFEFFFFFFFFEFFFFFEFFFF7FC2FFB2
:100D200010B588B004AA1E4B13CB13C21B68136006
:100D30006A461C4B13CB13C21B6813601A4B5A68CC
:100D40000C231340082B04D00C2B26D1174808B0D5
:100D500010BD910C0F23194004A8445C1249C96AC4
:100D60000B406946C95CC0235B021A4080235B02CA
:100D70009A4208D0C0235B029A4209D00C48FFF780
:100D8000C3F96043E3E70A48FFF7BEF96043DEE7D3
:100D90000648FFF7B9F96043D9E70548D7E7C046E9
:100DA000D0120008E412000800100240006CDC02BF
:100DB00000127A0070B504000D00002800D186E012
:100DC000474B1A68012313408B420AD244490B68EF
:100DD000012293432B430B600B681A40AA4200D0B8
:100DE00077E023689A070ED55B0705D53D4A516821
:100DF000E023DB000B4353603A4A5368F0218B43F6
:100E0000A1680B4353602368DB0735D56368012B6A
:100E100009D0022B24D0032B28D0324A1268920723
:100E200005D4012052E02F4A1268920353D52D4970
:100E30004A680320824313434B6000F0B7F8060072
:100E4000284B5B680C221A4063689B009A4213D0BF
:100E500000F0ACF8801B244B9842F1D9032035E018
:100E6000204A12689201E2D401202FE01D4A526B01
:100E7000D203DCD4012029E0194B1A680123134066
:100E8000AB4209D916490B68012293432B430B60EF
:100E90000B681A40AA4220D123685B0706D5114A85
:100EA000536812490B40E1680B435360FFF738FF6A
:100EB0000C4B5A6812090F2313400D4AD35CD840DB
:100EC0000C4B1860002000F02DF8002070BD0120B0
:100ED000FCE70120FAE70120F8E70120F6E7C04629
:100EE000002002400010024088130000FFF8FFFFBE
:100EF000F812000808000020014B18687047C0462F
:100F00000800002010B5FFF7F7FF044B5A68120ADB
:100F100007231340024AD35CD84010BD00100240A2
:100F20000813000810B504000F4B1978FA20800050
:100F3000FFF7EAF801000D4B1868FFF7E5F800F03D
:100F40002FF900280DD1032C01D901200AE001302E
:100F500000222100404200F0F3F8054B1C60002005
:100F600000E0012010BDC046000000200800002065
:100F70000400002010B5064A136810210B431360CB
:100F80000020FFF7CFFFFFF71DFA002010BDC0467D
:100F900000200240034A1168034B1B785B18136062
:100FA0007047C046AC00002000000020014B1868CC
:100FB0007047C046AC000020F0B5CE46474680B52D
:100FC00083B0002390E084685F000326BE40B443F2
:100FD0002600CC68BC4034438460446894434A682B
:100FE0001609012232409A4022434260C4685F00E1
:100FF0000326BE40F2439446B44326008C68BC40AE
:101000003443C4604A68022A01D0122A10D1DE0893
:101010000836B2009146145807221A4092000F2653
:101020009640B4430E699640320022434C4622500B
:1010300004686246144003224E683240BA4022439C
:1010400002604A68D2004ED5384CA6690122164388
:10105000A661A46922400192019A9A08941CA400F6
:10106000334EA75903241C40A4000F26A640B743C3
:101070009026F605B0424FD02E4EB0424ED02E4EA6
:10108000B04247D00526A64034003C4302329200CD
:10109000274E9451294A1468EA432600AE434F680C
:1010A000FF0301D52C432600244C266064682600EB
:1010B00016404F68BF0301D52C4326001F4C6660C5
:1010C000A468260016404F68FF0201D52C43260075
:1010D0001A4CA660E46822404E68B60201D52A0088
:1010E0002243164CE26001330C682200DA4017D02C
:1010F00001229A40250015401442F4D04C68661E27
:10110000012E00D85FE7112C00D15CE7122C00D033
:101110006CE758E70226B6E70026B4E70126B2E7F7
:1011200003B0C0BCB946B046F0BDC0460010024096
:10113000000001400004004800080048000401408D
:1011400070B5002811DB8308134EC0339B009D59F6
:1011500003242040C000FF2214008440A5438901DD
:101160000A4082402A439A5170BD0F230340083B36
:101170009B0806339B00094A944663445C6803223B
:101180001040C000FC3215008540AC4389010A4084
:10119000824022435A60E7E700E100E000ED00E012
:1011A000013880235B0498420FD2094A50600948F5
:1011B000036A1B021B0AC02109060B4303620023BA
:1011C000936007331360002070470120FCE7C0469E
:1011D00010E000E000ED00E0704700001348854695
:1011E00013480168090E134A914205D11248134968
:1011F000016013481349016013481449144A00233D
:1012000002E0D458C4500433C4188C42F9D3114AB4
:10121000114C002301E013600432A242FBD3FFF71C
:10122000DBFF00F01DF8FFF71CF8FEE700180020B8
:10123000040000001F000000181002400100000020
:101240000000014000000000000000200C00002011
:10125000181300080C000020B0000020FEE700007A
:1012600070B500260C4D0D4C641BA410A64209D18C
:10127000002600F021F80A4D0A4C641BA410A64277
:1012800005D170BDB300EB5898470136EEE7B300C7
:10129000EB5898470136F2E71013000810130008C6
:1012A000101300081413000803008218934200D1A1
:1012B000704719700133F9E7F8B5C046F8BC08BCAF
:1012C0009E467047F8B5C046F8BC08BC9E467047BD
:1012D00002030405060708090A0B0C0D0E0F101077
:1012E000000000000102030405060708090A0B0CB0
:1012F0000D0E0F10000000000000000000000000B4
:1013000001020304060708090000000001020304AB
:04131000E9000008E8
:04131400C10000080C
:0C131800010000000400000000127A0038
:04000005080011DD01
:00000001FF
